{
  "_format": "hh-sol-artifact-1",
  "contractName": "MovieTicket",
  "sourceName": "contracts/MovieTicket.sol",
  "abi": [
    {
      "inputs": [],
      "stateMutability": "nonpayable",
      "type": "constructor"
    },
    {
      "inputs": [
        {
          "internalType": "address",
          "name": "owner",
          "type": "address"
        }
      ],
      "name": "OwnableInvalidOwner",
      "type": "error"
    },
    {
      "inputs": [
        {
          "internalType": "address",
          "name": "account",
          "type": "address"
        }
      ],
      "name": "OwnableUnauthorizedAccount",
      "type": "error"
    },
    {
      "anonymous": false,
      "inputs": [
        {
          "indexed": true,
          "internalType": "uint256",
          "name": "movieId",
          "type": "uint256"
        },
        {
          "indexed": false,
          "internalType": "string",
          "name": "title",
          "type": "string"
        },
        {
          "indexed": false,
          "internalType": "uint256",
          "name": "price",
          "type": "uint256"
        },
        {
          "indexed": false,
          "internalType": "uint256",
          "name": "seats",
          "type": "uint256"
        }
      ],
      "name": "MovieAdded",
      "type": "event"
    },
    {
      "anonymous": false,
      "inputs": [
        {
          "indexed": true,
          "internalType": "address",
          "name": "previousOwner",
          "type": "address"
        },
        {
          "indexed": true,
          "internalType": "address",
          "name": "newOwner",
          "type": "address"
        }
      ],
      "name": "OwnershipTransferred",
      "type": "event"
    },
    {
      "anonymous": false,
      "inputs": [
        {
          "indexed": true,
          "internalType": "address",
          "name": "buyer",
          "type": "address"
        },
        {
          "indexed": true,
          "internalType": "uint256",
          "name": "movieId",
          "type": "uint256"
        },
        {
          "indexed": false,
          "internalType": "uint256",
          "name": "count",
          "type": "uint256"
        },
        {
          "indexed": false,
          "internalType": "uint256",
          "name": "totalPaid",
          "type": "uint256"
        }
      ],
      "name": "TicketPurchased",
      "type": "event"
    },
    {
      "anonymous": false,
      "inputs": [
        {
          "indexed": true,
          "internalType": "address",
          "name": "owner",
          "type": "address"
        },
        {
          "indexed": false,
          "internalType": "uint256",
          "name": "amount",
          "type": "uint256"
        }
      ],
      "name": "Withdraw",
      "type": "event"
    },
    {
      "inputs": [
        {
          "internalType": "string",
          "name": "title",
          "type": "string"
        },
        {
          "internalType": "uint256",
          "name": "price",
          "type": "uint256"
        },
        {
          "internalType": "uint256",
          "name": "seats",
          "type": "uint256"
        }
      ],
      "name": "addMovie",
      "outputs": [],
      "stateMutability": "nonpayable",
      "type": "function"
    },
    {
      "inputs": [
        {
          "internalType": "uint256",
          "name": "movieId",
          "type": "uint256"
        },
        {
          "internalType": "uint256",
          "name": "seatCount",
          "type": "uint256"
        }
      ],
      "name": "buyTicket",
      "outputs": [],
      "stateMutability": "payable",
      "type": "function"
    },
    {
      "inputs": [
        {
          "internalType": "uint256",
          "name": "movieId",
          "type": "uint256"
        }
      ],
      "name": "getMovie",
      "outputs": [
        {
          "internalType": "string",
          "name": "title",
          "type": "string"
        },
        {
          "internalType": "uint256",
          "name": "price",
          "type": "uint256"
        },
        {
          "internalType": "uint256",
          "name": "seats",
          "type": "uint256"
        }
      ],
      "stateMutability": "view",
      "type": "function"
    },
    {
      "inputs": [],
      "name": "movieCount",
      "outputs": [
        {
          "internalType": "uint256",
          "name": "",
          "type": "uint256"
        }
      ],
      "stateMutability": "view",
      "type": "function"
    },
    {
      "inputs": [],
      "name": "owner",
      "outputs": [
        {
          "internalType": "address",
          "name": "",
          "type": "address"
        }
      ],
      "stateMutability": "view",
      "type": "function"
    },
    {
      "inputs": [],
      "name": "renounceOwnership",
      "outputs": [],
      "stateMutability": "nonpayable",
      "type": "function"
    },
    {
      "inputs": [
        {
          "internalType": "address",
          "name": "buyer",
          "type": "address"
        },
        {
          "internalType": "uint256",
          "name": "movieId",
          "type": "uint256"
        }
      ],
      "name": "ticketsOf",
      "outputs": [
        {
          "internalType": "uint256",
          "name": "",
          "type": "uint256"
        }
      ],
      "stateMutability": "view",
      "type": "function"
    },
    {
      "inputs": [
        {
          "internalType": "address",
          "name": "newOwner",
          "type": "address"
        }
      ],
      "name": "transferOwnership",
      "outputs": [],
      "stateMutability": "nonpayable",
      "type": "function"
    },
    {
      "inputs": [],
      "name": "withdraw",
      "outputs": [],
      "stateMutability": "nonpayable",
      "type": "function"
    }
  ],
  "bytecode": "0x60806040523480156200001157600080fd5b5033600073ffffffffffffffffffffffffffffffffffffffff168173ffffffffffffffffffffffffffffffffffffffff1603620000885760006040517f1e4fbdf70000000000000000000000000000000000000000000000000000000081526004016200007f9190620001a9565b60405180910390fd5b6200009981620000a060201b60201c565b50620001c6565b60008060009054906101000a900473ffffffffffffffffffffffffffffffffffffffff169050816000806101000a81548173ffffffffffffffffffffffffffffffffffffffff021916908373ffffffffffffffffffffffffffffffffffffffff1602179055508173ffffffffffffffffffffffffffffffffffffffff168173ffffffffffffffffffffffffffffffffffffffff167f8be0079c531659141344cd1fd0a4f28419497f9722a3daafe3b4186f6b6457e060405160405180910390a35050565b600073ffffffffffffffffffffffffffffffffffffffff82169050919050565b6000620001918262000164565b9050919050565b620001a38162000184565b82525050565b6000602082019050620001c0600083018462000198565b92915050565b61165280620001d66000396000f3fe6080604052600436106100865760003560e01c8063715018a611610059578063715018a6146101265780638da5cb5b1461013d578063a1daf32614610168578063c82f610214610193578063f2fde38b146101d057610086565b8063179ffe761461008b5780632080c3dc146100ca578063298ec208146100f35780633ccfd60b1461010f575b600080fd5b34801561009757600080fd5b506100b260048036038101906100ad9190610afe565b6101f9565b6040516100c193929190610bca565b60405180910390f35b3480156100d657600080fd5b506100f160048036038101906100ec9190610c6d565b610320565b005b61010d60048036038101906101089190610ce1565b61051e565b005b34801561011b57600080fd5b50610124610751565b005b34801561013257600080fd5b5061013b610847565b005b34801561014957600080fd5b5061015261085b565b60405161015f9190610d62565b60405180910390f35b34801561017457600080fd5b5061017d610884565b60405161018a9190610d7d565b60405180910390f35b34801561019f57600080fd5b506101ba60048036038101906101b59190610dc4565b61088a565b6040516101c79190610d7d565b60405180910390f35b3480156101dc57600080fd5b506101f760048036038101906101f29190610e04565b6108e5565b005b60606000806001600085815260200190815260200160002060030160009054906101000a900460ff16610261576040517f08c379a000000000000000000000000000000000000000000000000000000000815260040161025890610e7d565b60405180910390fd5b6000600160008681526020019081526020016000209050806000018160010154826002015482805461029290610ecc565b80601f01602080910402602001604051908101604052809291908181526020018280546102be90610ecc565b801561030b5780601f106102e05761010080835404028352916020019161030b565b820191906000526020600020905b8154815290600101906020018083116102ee57829003601f168201915b50505050509250935093509350509193909250565b61032861096b565b6000848490501161036e576040517f08c379a000000000000000000000000000000000000000000000000000000000815260040161036590610f49565b60405180910390fd5b600082116103b1576040517f08c379a00000000000000000000000000000000000000000000000000000000081526004016103a890610fb5565b60405180910390fd5b600081116103f4576040517f08c379a00000000000000000000000000000000000000000000000000000000081526004016103eb90611021565b60405180910390fd5b604051806080016040528085858080601f016020809104026020016040519081016040528093929190818152602001838380828437600081840152601f19601f820116905080830192505050505050508152602001838152602001828152602001600115158152506001600060025481526020019081526020016000206000820151816000019081610486919061121c565b50602082015181600101556040820151816002015560608201518160030160006101000a81548160ff0219169083151502179055509050506002547f016a5e7e30a5293078590a43f48f9c25553a4aaf18107da59e249f989ab67280858585856040516104f6949392919061132a565b60405180910390a26001600260008282546105119190611399565b9250508190555050505050565b60008111610561576040517f08c379a000000000000000000000000000000000000000000000000000000000815260040161055890611419565b60405180910390fd5b6001600083815260200190815260200160002060030160009054906101000a900460ff166105c4576040517f08c379a00000000000000000000000000000000000000000000000000000000081526004016105bb90610e7d565b60405180910390fd5b60006001600084815260200190815260200160002090508181600201541015610622576040517f08c379a000000000000000000000000000000000000000000000000000000000815260040161061990611485565b60405180910390fd5b600082826001015461063491906114a5565b9050803414610678576040517f08c379a000000000000000000000000000000000000000000000000000000000815260040161066f90611533565b60405180910390fd5b8282600201600082825461068c9190611553565b9250508190555082600360003373ffffffffffffffffffffffffffffffffffffffff1673ffffffffffffffffffffffffffffffffffffffff168152602001908152602001600020600086815260200190815260200160002060008282546106f39190611399565b92505081905550833373ffffffffffffffffffffffffffffffffffffffff167f96541f70da731142b18e96f1def4d2a7733deb7d784723106d52c1d906d4c67a8534604051610743929190611587565b60405180910390a350505050565b61075961096b565b6000479050600081116107a1576040517f08c379a0000000000000000000000000000000000000000000000000000000008152600401610798906115fc565b60405180910390fd5b6107a961085b565b73ffffffffffffffffffffffffffffffffffffffff166108fc829081150290604051600060405180830381858888f193505050501580156107ee573d6000803e3d6000fd5b506107f761085b565b73ffffffffffffffffffffffffffffffffffffffff167f884edad9ce6fa2440d8a54cc123490eb96d2768479d49ff9c7366125a94243648260405161083c9190610d7d565b60405180910390a250565b61084f61096b565b61085960006109f2565b565b60008060009054906101000a900473ffffffffffffffffffffffffffffffffffffffff16905090565b60025481565b6000600360008473ffffffffffffffffffffffffffffffffffffffff1673ffffffffffffffffffffffffffffffffffffffff168152602001908152602001600020600083815260200190815260200160002054905092915050565b6108ed61096b565b600073ffffffffffffffffffffffffffffffffffffffff168173ffffffffffffffffffffffffffffffffffffffff160361095f5760006040517f1e4fbdf70000000000000000000000000000000000000000000000000000000081526004016109569190610d62565b60405180910390fd5b610968816109f2565b50565b610973610ab6565b73ffffffffffffffffffffffffffffffffffffffff1661099161085b565b73ffffffffffffffffffffffffffffffffffffffff16146109f0576109b4610ab6565b6040517f118cdaa70000000000000000000000000000000000000000000000000000000081526004016109e79190610d62565b60405180910390fd5b565b60008060009054906101000a900473ffffffffffffffffffffffffffffffffffffffff169050816000806101000a81548173ffffffffffffffffffffffffffffffffffffffff021916908373ffffffffffffffffffffffffffffffffffffffff1602179055508173ffffffffffffffffffffffffffffffffffffffff168173ffffffffffffffffffffffffffffffffffffffff167f8be0079c531659141344cd1fd0a4f28419497f9722a3daafe3b4186f6b6457e060405160405180910390a35050565b600033905090565b600080fd5b600080fd5b6000819050919050565b610adb81610ac8565b8114610ae657600080fd5b50565b600081359050610af881610ad2565b92915050565b600060208284031215610b1457610b13610abe565b5b6000610b2284828501610ae9565b91505092915050565b600081519050919050565b600082825260208201905092915050565b60005b83811015610b65578082015181840152602081019050610b4a565b60008484015250505050565b6000601f19601f8301169050919050565b6000610b8d82610b2b565b610b978185610b36565b9350610ba7818560208601610b47565b610bb081610b71565b840191505092915050565b610bc481610ac8565b82525050565b60006060820190508181036000830152610be48186610b82565b9050610bf36020830185610bbb565b610c006040830184610bbb565b949350505050565b600080fd5b600080fd5b600080fd5b60008083601f840112610c2d57610c2c610c08565b5b8235905067ffffffffffffffff811115610c4a57610c49610c0d565b5b602083019150836001820283011115610c6657610c65610c12565b5b9250929050565b60008060008060608587031215610c8757610c86610abe565b5b600085013567ffffffffffffffff811115610ca557610ca4610ac3565b5b610cb187828801610c17565b94509450506020610cc487828801610ae9565b9250506040610cd587828801610ae9565b91505092959194509250565b60008060408385031215610cf857610cf7610abe565b5b6000610d0685828601610ae9565b9250506020610d1785828601610ae9565b9150509250929050565b600073ffffffffffffffffffffffffffffffffffffffff82169050919050565b6000610d4c82610d21565b9050919050565b610d5c81610d41565b82525050565b6000602082019050610d776000830184610d53565b92915050565b6000602082019050610d926000830184610bbb565b92915050565b610da181610d41565b8114610dac57600080fd5b50565b600081359050610dbe81610d98565b92915050565b60008060408385031215610ddb57610dda610abe565b5b6000610de985828601610daf565b9250506020610dfa85828601610ae9565b9150509250929050565b600060208284031215610e1a57610e19610abe565b5b6000610e2884828501610daf565b91505092915050565b7f4d6f76696520646f6573206e6f74206578697374000000000000000000000000600082015250565b6000610e67601483610b36565b9150610e7282610e31565b602082019050919050565b60006020820190508181036000830152610e9681610e5a565b9050919050565b7f4e487b7100000000000000000000000000000000000000000000000000000000600052602260045260246000fd5b60006002820490506001821680610ee457607f821691505b602082108103610ef757610ef6610e9d565b5b50919050565b7f5469746c65207265717569726564000000000000000000000000000000000000600082015250565b6000610f33600e83610b36565b9150610f3e82610efd565b602082019050919050565b60006020820190508181036000830152610f6281610f26565b9050919050565b7f5072696365206d757374206265203e2030000000000000000000000000000000600082015250565b6000610f9f601183610b36565b9150610faa82610f69565b602082019050919050565b60006020820190508181036000830152610fce81610f92565b9050919050565b7f5365617473206d757374206265203e2030000000000000000000000000000000600082015250565b600061100b601183610b36565b915061101682610fd5565b602082019050919050565b6000602082019050818103600083015261103a81610ffe565b9050919050565b7f4e487b7100000000000000000000000000000000000000000000000000000000600052604160045260246000fd5b60008190508160005260206000209050919050565b60006020601f8301049050919050565b600082821b905092915050565b6000600883026110d27fffffffffffffffffffffffffffffffffffffffffffffffffffffffffffffffff82611095565b6110dc8683611095565b95508019841693508086168417925050509392505050565b6000819050919050565b600061111961111461110f84610ac8565b6110f4565b610ac8565b9050919050565b6000819050919050565b611133836110fe565b61114761113f82611120565b8484546110a2565b825550505050565b600090565b61115c61114f565b61116781848461112a565b505050565b5b8181101561118b57611180600082611154565b60018101905061116d565b5050565b601f8211156111d0576111a181611070565b6111aa84611085565b810160208510156111b9578190505b6111cd6111c585611085565b83018261116c565b50505b505050565b600082821c905092915050565b60006111f3600019846008026111d5565b1980831691505092915050565b600061120c83836111e2565b9150826002028217905092915050565b61122582610b2b565b67ffffffffffffffff81111561123e5761123d611041565b5b6112488254610ecc565b61125382828561118f565b600060209050601f8311600181146112865760008415611274578287015190505b61127e8582611200565b8655506112e6565b601f19841661129486611070565b60005b828110156112bc57848901518255600182019150602085019450602081019050611297565b868310156112d957848901516112d5601f8916826111e2565b8355505b6001600288020188555050505b505050505050565b82818337600083830152505050565b60006113098385610b36565b93506113168385846112ee565b61131f83610b71565b840190509392505050565b600060608201905081810360008301526113458186886112fd565b90506113546020830185610bbb565b6113616040830184610bbb565b95945050505050565b7f4e487b7100000000000000000000000000000000000000000000000000000000600052601160045260246000fd5b60006113a482610ac8565b91506113af83610ac8565b92508282019050808211156113c7576113c661136a565b5b92915050565b7f4d75737420627579206174206c656173742031207469636b6574000000000000600082015250565b6000611403601a83610b36565b915061140e826113cd565b602082019050919050565b60006020820190508181036000830152611432816113f6565b9050919050565b7f4e6f7420656e6f75676820736561747300000000000000000000000000000000600082015250565b600061146f601083610b36565b915061147a82611439565b602082019050919050565b6000602082019050818103600083015261149e81611462565b9050919050565b60006114b082610ac8565b91506114bb83610ac8565b92508282026114c981610ac8565b915082820484148315176114e0576114df61136a565b5b5092915050565b7f496e636f7272656374204554482073656e740000000000000000000000000000600082015250565b600061151d601283610b36565b9150611528826114e7565b602082019050919050565b6000602082019050818103600083015261154c81611510565b9050919050565b600061155e82610ac8565b915061156983610ac8565b92508282039050818111156115815761158061136a565b5b92915050565b600060408201905061159c6000830185610bbb565b6115a96020830184610bbb565b9392505050565b7f4e6f2066756e647320746f207769746864726177000000000000000000000000600082015250565b60006115e6601483610b36565b91506115f1826115b0565b602082019050919050565b60006020820190508181036000830152611615816115d9565b905091905056fea2646970667358221220a1f9f224f25677bb5c77393d1faa66d25b1ef557802af7177718061fef2d6b2a64736f6c63430008140033",
  "linkReferences": {},
  "deployedLinkReferences": {}
}